{
  "address": "0x5FbDB2315678afecb367f032d93F642f64180aa3",
  "abi": [
    {
      "anonymous": false,
      "inputs": [
        {
          "indexed": true,
          "internalType": "address",
          "name": "client",
          "type": "address"
        },
        {
          "indexed": true,
          "internalType": "string",
          "name": "funcSig",
          "type": "string"
        },
        {
          "indexed": false,
          "internalType": "bytes32[]",
          "name": "validInputs",
          "type": "bytes32[]"
        }
      ],
      "name": "InputControl__AllowedInputsGranted",
      "type": "event"
    },
    {
      "inputs": [
        {
          "internalType": "address",
          "name": "_client",
          "type": "address"
        },
        {
          "internalType": "bytes32[]",
          "name": "_validInputs",
          "type": "bytes32[]"
        },
        {
          "internalType": "string",
          "name": "_funcSignature",
          "type": "string"
        }
      ],
      "name": "callAllowInputsFor",
      "outputs": [],
      "stateMutability": "nonpayable",
      "type": "function"
    },
    {
      "inputs": [
        {
          "internalType": "string",
          "name": "_funcSignature",
          "type": "string"
        },
        {
          "internalType": "address",
          "name": "_address",
          "type": "address"
        }
      ],
      "name": "getAllowedInputs",
      "outputs": [
        {
          "internalType": "bytes32[]",
          "name": "",
          "type": "bytes32[]"
        }
      ],
      "stateMutability": "view",
      "type": "function"
    }
  ],
  "transactionHash": "0x22aec12013b5747e557b73c9183e2fdb525909970119af40260497e14243b768",
  "args": [],
  "numDeployments": 1,
  "solcInputHash": "dcc7d605cc2d00279fd72a776ef65c70",
  "bytecode": "0x608060405234801561001057600080fd5b5061093b806100206000396000f3fe608060405234801561001057600080fd5b50600436106100365760003560e01c806331178f211461003b578063b16731c81461006b575b600080fd5b61005560048036038101906100509190610520565b610087565b6040516100629190610644565b60405180910390f35b6100856004803603810190610080919061071c565b61013e565b005b60606000836040516100999190610822565b908152602001604051809103902060008373ffffffffffffffffffffffffffffffffffffffff1673ffffffffffffffffffffffffffffffffffffffff16815260200190815260200160002060010180548060200260200160405190810160405280929190818152602001828054801561013157602002820191906000526020600020905b81548152602001906001019080831161011d575b5050505050905092915050565b61014b8585858585610152565b5050505050565b838390506000838360405161016892919061085e565b908152602001604051809103902060008773ffffffffffffffffffffffffffffffffffffffff1673ffffffffffffffffffffffffffffffffffffffff1681526020019081526020016000206000018190555060008083836040516101cd92919061085e565b908152602001604051809103902060008773ffffffffffffffffffffffffffffffffffffffff1673ffffffffffffffffffffffffffffffffffffffff1681526020019081526020016000206002018190555083836000848460405161023392919061085e565b908152602001604051809103902060008873ffffffffffffffffffffffffffffffffffffffff1673ffffffffffffffffffffffffffffffffffffffff168152602001908152602001600020600101919061028e9291906102fe565b50818160405161029f92919061085e565b60405180910390208573ffffffffffffffffffffffffffffffffffffffff167f58fa4241059db3501974e44fab24d95eb1201626497a194d5725a29ca5a2c8d886866040516102ef9291906108e1565b60405180910390a35050505050565b82805482825590600052602060002090810192821561033a579160200282015b8281111561033957823582559160200191906001019061031e565b5b509050610347919061034b565b5090565b5b8082111561036457600081600090555060010161034c565b5090565b6000604051905090565b600080fd5b600080fd5b600080fd5b600080fd5b6000601f19601f8301169050919050565b7f4e487b7100000000000000000000000000000000000000000000000000000000600052604160045260246000fd5b6103cf82610386565b810181811067ffffffffffffffff821117156103ee576103ed610397565b5b80604052505050565b6000610401610368565b905061040d82826103c6565b919050565b600067ffffffffffffffff82111561042d5761042c610397565b5b61043682610386565b9050602081019050919050565b82818337600083830152505050565b600061046561046084610412565b6103f7565b90508281526020810184848401111561048157610480610381565b5b61048c848285610443565b509392505050565b600082601f8301126104a9576104a861037c565b5b81356104b9848260208601610452565b91505092915050565b600073ffffffffffffffffffffffffffffffffffffffff82169050919050565b60006104ed826104c2565b9050919050565b6104fd816104e2565b811461050857600080fd5b50565b60008135905061051a816104f4565b92915050565b6000806040838503121561053757610536610372565b5b600083013567ffffffffffffffff81111561055557610554610377565b5b61056185828601610494565b92505060206105728582860161050b565b9150509250929050565b600081519050919050565b600082825260208201905092915050565b6000819050602082019050919050565b6000819050919050565b6105bb816105a8565b82525050565b60006105cd83836105b2565b60208301905092915050565b6000602082019050919050565b60006105f18261057c565b6105fb8185610587565b935061060683610598565b8060005b8381101561063757815161061e88826105c1565b9750610629836105d9565b92505060018101905061060a565b5085935050505092915050565b6000602082019050818103600083015261065e81846105e6565b905092915050565b600080fd5b600080fd5b60008083601f8401126106865761068561037c565b5b8235905067ffffffffffffffff8111156106a3576106a2610666565b5b6020830191508360208202830111156106bf576106be61066b565b5b9250929050565b60008083601f8401126106dc576106db61037c565b5b8235905067ffffffffffffffff8111156106f9576106f8610666565b5b6020830191508360018202830111156107155761071461066b565b5b9250929050565b60008060008060006060868803121561073857610737610372565b5b60006107468882890161050b565b955050602086013567ffffffffffffffff81111561076757610766610377565b5b61077388828901610670565b9450945050604086013567ffffffffffffffff81111561079657610795610377565b5b6107a2888289016106c6565b92509250509295509295909350565b600081519050919050565b600081905092915050565b60005b838110156107e55780820151818401526020810190506107ca565b60008484015250505050565b60006107fc826107b1565b61080681856107bc565b93506108168185602086016107c7565b80840191505092915050565b600061082e82846107f1565b915081905092915050565b600061084583856107bc565b9350610852838584610443565b82840190509392505050565b600061086b828486610839565b91508190509392505050565b600080fd5b82818337505050565b60006108918385610587565b93507f07ffffffffffffffffffffffffffffffffffffffffffffffffffffffffffffff8311156108c4576108c3610877565b5b6020830292506108d583858461087c565b82840190509392505050565b600060208201905081810360008301526108fc818486610885565b9050939250505056fea264697066735822122014a2949bbbe08c164452be5160734f86310794d91a73a0ec53b8cc940a9796a364736f6c63430008110033",
  "devdoc": {
    "author": "Carlos Alegre Urquiz (GitHub --> https://github.com/CarlosAlegreUr)",
    "details": "To use it make your contract inherit InputControl contract and add the isAllowedInput() modifier in the functions you desire to control their inputs. Add to them an extra parameter, this parameter should be a 32 bytes hash given by the contract owner in some front-end back-end communication.Additionally you can override callAllowInputsFor() if you please mixing this functionality with, for example, other useful ones like Owner or AccessControl contracts from OpenZeppelin.",
    "kind": "dev",
    "methods": {
      "callAllowInputsFor(address,bytes32[],string)": {
        "details": "Override this function in your contract to use allowInputsFor() mixed with other useful contracts and modifiers like Owner and AccessControl contracts of OpenZeppelin. See param specifications in allowInputsFor() docs."
      },
      "getAllowedInputs(string,address)": {
        "returns": {
          "_0": "Allowed inputs from `_address` when calling `_funcSignature`. Index of inputs on the inputs array shows in which time calling `_funcSignature` that input can be used."
        }
      }
    },
    "title": "Input Control.",
    "version": 1
  },
  "userdoc": {
    "kind": "user",
    "methods": {},
    "notice": "InputControl can be used to control which inputs can some addresses send to your smart contracts functions.",
    "version": 1
  },
  "storageLayout": {
    "storage": [
      {
        "astId": 1620,
        "contract": "contracts/InputControl.sol:InputControl",
        "label": "s_funcSignatureToAllowedInputSequence",
        "offset": 0,
        "slot": "0",
        "type": "t_mapping(t_string_memory_ptr,t_mapping(t_address,t_struct(inputSequence)1613_storage))"
      }
    ],
    "types": {
      "t_address": {
        "encoding": "inplace",
        "label": "address",
        "numberOfBytes": "20"
      },
      "t_array(t_bytes32)dyn_storage": {
        "base": "t_bytes32",
        "encoding": "dynamic_array",
        "label": "bytes32[]",
        "numberOfBytes": "32"
      },
      "t_bytes32": {
        "encoding": "inplace",
        "label": "bytes32",
        "numberOfBytes": "32"
      },
      "t_mapping(t_address,t_struct(inputSequence)1613_storage)": {
        "encoding": "mapping",
        "key": "t_address",
        "label": "mapping(address => struct InputControl.inputSequence)",
        "numberOfBytes": "32",
        "value": "t_struct(inputSequence)1613_storage"
      },
      "t_mapping(t_string_memory_ptr,t_mapping(t_address,t_struct(inputSequence)1613_storage))": {
        "encoding": "mapping",
        "key": "t_string_memory_ptr",
        "label": "mapping(string => mapping(address => struct InputControl.inputSequence))",
        "numberOfBytes": "32",
        "value": "t_mapping(t_address,t_struct(inputSequence)1613_storage)"
      },
      "t_string_memory_ptr": {
        "encoding": "bytes",
        "label": "string",
        "numberOfBytes": "32"
      },
      "t_struct(inputSequence)1613_storage": {
        "encoding": "inplace",
        "label": "struct InputControl.inputSequence",
        "members": [
          {
            "astId": 1607,
            "contract": "contracts/InputControl.sol:InputControl",
            "label": "numOfCalls",
            "offset": 0,
            "slot": "0",
            "type": "t_uint256"
          },
          {
            "astId": 1610,
            "contract": "contracts/InputControl.sol:InputControl",
            "label": "inputs",
            "offset": 0,
            "slot": "1",
            "type": "t_array(t_bytes32)dyn_storage"
          },
          {
            "astId": 1612,
            "contract": "contracts/InputControl.sol:InputControl",
            "label": "actualCall",
            "offset": 0,
            "slot": "2",
            "type": "t_uint256"
          }
        ],
        "numberOfBytes": "96"
      },
      "t_uint256": {
        "encoding": "inplace",
        "label": "uint256",
        "numberOfBytes": "32"
      }
    }
  }
}