{
  "address": "0x5FbDB2315678afecb367f032d93F642f64180aa3",
  "abi": [
    {
      "anonymous": false,
      "inputs": [
        {
          "indexed": true,
          "internalType": "address",
          "name": "client",
          "type": "address"
        },
        {
          "indexed": true,
          "internalType": "string",
          "name": "funcSig",
          "type": "string"
        },
        {
          "indexed": false,
          "internalType": "bytes32[]",
          "name": "validInputs",
          "type": "bytes32[]"
        }
      ],
      "name": "InputControl__AllowedInputsGranted",
      "type": "event"
    },
    {
      "inputs": [
        {
          "internalType": "address",
          "name": "_client",
          "type": "address"
        },
        {
          "internalType": "bytes32[]",
          "name": "_validInputs",
          "type": "bytes32[]"
        },
        {
          "internalType": "string",
          "name": "_funcSignature",
          "type": "string"
        }
      ],
      "name": "callAllowInputsFor",
      "outputs": [],
      "stateMutability": "nonpayable",
      "type": "function"
    },
    {
      "inputs": [
        {
          "internalType": "string",
          "name": "_funcSignature",
          "type": "string"
        },
        {
          "internalType": "address",
          "name": "_address",
          "type": "address"
        }
      ],
      "name": "getAllowedInputs",
      "outputs": [
        {
          "internalType": "bytes32[]",
          "name": "",
          "type": "bytes32[]"
        }
      ],
      "stateMutability": "view",
      "type": "function"
    }
  ],
  "transactionHash": "0x56554106dcfb0275b46d1997faa9b7ee5a1b4a59397d4737c79ec62fe9e3417c",
  "args": [],
  "numDeployments": 1,
  "solcInputHash": "d612edee16dc5d9f86d060ebd79d56c6",
  "bytecode": "0x608060405234801561001057600080fd5b50610e7b806100206000396000f3fe608060405234801561001057600080fd5b50600436106100365760003560e01c806331178f211461003b578063b16731c81461006b575b600080fd5b6100556004803603810190610050919061096c565b610087565b6040516100629190610a90565b60405180910390f35b61008560048036038101906100809190610b68565b61013e565b005b60606000836040516100999190610c6e565b908152602001604051809103902060008373ffffffffffffffffffffffffffffffffffffffff1673ffffffffffffffffffffffffffffffffffffffff16815260200190815260200160002060010180548060200260200160405190810160405280929190818152602001828054801561013157602002820191906000526020600020905b81548152602001906001019080831161011d575b5050505050905092915050565b61014b8585858585610152565b5050505050565b8383905060008383604051610168929190610caa565b908152602001604051809103902060008773ffffffffffffffffffffffffffffffffffffffff1673ffffffffffffffffffffffffffffffffffffffff1681526020019081526020016000206000018190555060008083836040516101cd929190610caa565b908152602001604051809103902060008773ffffffffffffffffffffffffffffffffffffffff1673ffffffffffffffffffffffffffffffffffffffff16815260200190815260200160002060020181905550838360008484604051610233929190610caa565b908152602001604051809103902060008873ffffffffffffffffffffffffffffffffffffffff1673ffffffffffffffffffffffffffffffffffffffff168152602001908152602001600020600101919061028e92919061074a565b506102cd6040518060400160405280601f81526020017f2d2d2d2d2d2d2d2d2d2d2d2d2d2d2d2d2d2d2d2d2d2d2d2d2d2d2d2d2d2d2d00815250610550565b61030b6040518060400160405280601281526020017f534156494e4720544849532056414c55453a0000000000000000000000000000815250610550565b6103aa6040518060400160405280600281526020017f257300000000000000000000000000000000000000000000000000000000000081525060008484604051610356929190610caa565b908152602001604051809103902060008873ffffffffffffffffffffffffffffffffffffffff1673ffffffffffffffffffffffffffffffffffffffff168152602001908152602001600020600001546105e9565b6103e86040518060400160405280601f81526020017f2d2d2d2d2d2d2d2d2d2d2d2d2d2d2d2d2d2d2d2d2d2d2d2d2d2d2d2d2d2d2d00815250610550565b6104266040518060400160405280601f81526020017f2d2d2d2d2d2d2d2d2d2d2d2d2d2d2d2d2d2d2d2d2d2d2d2d2d2d2d2d2d2d2d00815250610550565b6104646040518060400160405280600f81526020017f434c49454e5420414c4c4f5745443a0000000000000000000000000000000000815250610550565b6104a36040518060400160405280600281526020017f257300000000000000000000000000000000000000000000000000000000000081525086610685565b6104e16040518060400160405280601f81526020017f2d2d2d2d2d2d2d2d2d2d2d2d2d2d2d2d2d2d2d2d2d2d2d2d2d2d2d2d2d2d2d00815250610550565b81816040516104f1929190610caa565b60405180910390208573ffffffffffffffffffffffffffffffffffffffff167f58fa4241059db3501974e44fab24d95eb1201626497a194d5725a29ca5a2c8d88686604051610541929190610d2d565b60405180910390a35050505050565b6105e6816040516024016105649190610d9b565b6040516020818303038152906040527f41304fac000000000000000000000000000000000000000000000000000000007bffffffffffffffffffffffffffffffffffffffffffffffffffffffff19166020820180517bffffffffffffffffffffffffffffffffffffffffffffffffffffffff8381831617835250505050610721565b50565b61068182826040516024016105ff929190610dd6565b6040516020818303038152906040527fb60e72cc000000000000000000000000000000000000000000000000000000007bffffffffffffffffffffffffffffffffffffffffffffffffffffffff19166020820180517bffffffffffffffffffffffffffffffffffffffffffffffffffffffff8381831617835250505050610721565b5050565b61071d828260405160240161069b929190610e15565b6040516020818303038152906040527f319af333000000000000000000000000000000000000000000000000000000007bffffffffffffffffffffffffffffffffffffffffffffffffffffffff19166020820180517bffffffffffffffffffffffffffffffffffffffffffffffffffffffff8381831617835250505050610721565b5050565b60008151905060006a636f6e736f6c652e6c6f679050602083016000808483855afa5050505050565b828054828255906000526020600020908101928215610786579160200282015b8281111561078557823582559160200191906001019061076a565b5b5090506107939190610797565b5090565b5b808211156107b0576000816000905550600101610798565b5090565b6000604051905090565b600080fd5b600080fd5b600080fd5b600080fd5b6000601f19601f8301169050919050565b7f4e487b7100000000000000000000000000000000000000000000000000000000600052604160045260246000fd5b61081b826107d2565b810181811067ffffffffffffffff8211171561083a576108396107e3565b5b80604052505050565b600061084d6107b4565b90506108598282610812565b919050565b600067ffffffffffffffff821115610879576108786107e3565b5b610882826107d2565b9050602081019050919050565b82818337600083830152505050565b60006108b16108ac8461085e565b610843565b9050828152602081018484840111156108cd576108cc6107cd565b5b6108d884828561088f565b509392505050565b600082601f8301126108f5576108f46107c8565b5b813561090584826020860161089e565b91505092915050565b600073ffffffffffffffffffffffffffffffffffffffff82169050919050565b60006109398261090e565b9050919050565b6109498161092e565b811461095457600080fd5b50565b60008135905061096681610940565b92915050565b60008060408385031215610983576109826107be565b5b600083013567ffffffffffffffff8111156109a1576109a06107c3565b5b6109ad858286016108e0565b92505060206109be85828601610957565b9150509250929050565b600081519050919050565b600082825260208201905092915050565b6000819050602082019050919050565b6000819050919050565b610a07816109f4565b82525050565b6000610a1983836109fe565b60208301905092915050565b6000602082019050919050565b6000610a3d826109c8565b610a4781856109d3565b9350610a52836109e4565b8060005b83811015610a83578151610a6a8882610a0d565b9750610a7583610a25565b925050600181019050610a56565b5085935050505092915050565b60006020820190508181036000830152610aaa8184610a32565b905092915050565b600080fd5b600080fd5b60008083601f840112610ad257610ad16107c8565b5b8235905067ffffffffffffffff811115610aef57610aee610ab2565b5b602083019150836020820283011115610b0b57610b0a610ab7565b5b9250929050565b60008083601f840112610b2857610b276107c8565b5b8235905067ffffffffffffffff811115610b4557610b44610ab2565b5b602083019150836001820283011115610b6157610b60610ab7565b5b9250929050565b600080600080600060608688031215610b8457610b836107be565b5b6000610b9288828901610957565b955050602086013567ffffffffffffffff811115610bb357610bb26107c3565b5b610bbf88828901610abc565b9450945050604086013567ffffffffffffffff811115610be257610be16107c3565b5b610bee88828901610b12565b92509250509295509295909350565b600081519050919050565b600081905092915050565b60005b83811015610c31578082015181840152602081019050610c16565b60008484015250505050565b6000610c4882610bfd565b610c528185610c08565b9350610c62818560208601610c13565b80840191505092915050565b6000610c7a8284610c3d565b915081905092915050565b6000610c918385610c08565b9350610c9e83858461088f565b82840190509392505050565b6000610cb7828486610c85565b91508190509392505050565b600080fd5b82818337505050565b6000610cdd83856109d3565b93507f07ffffffffffffffffffffffffffffffffffffffffffffffffffffffffffffff831115610d1057610d0f610cc3565b5b602083029250610d21838584610cc8565b82840190509392505050565b60006020820190508181036000830152610d48818486610cd1565b90509392505050565b600082825260208201905092915050565b6000610d6d82610bfd565b610d778185610d51565b9350610d87818560208601610c13565b610d90816107d2565b840191505092915050565b60006020820190508181036000830152610db58184610d62565b905092915050565b6000819050919050565b610dd081610dbd565b82525050565b60006040820190508181036000830152610df08185610d62565b9050610dff6020830184610dc7565b9392505050565b610e0f8161092e565b82525050565b60006040820190508181036000830152610e2f8185610d62565b9050610e3e6020830184610e06565b939250505056fea264697066735822122020b45bd9a7c0c534ba2f0ebb585211f1ce69b140ed3fb2866729264aedeaca4d64736f6c63430008110033",
  "devdoc": {
    "author": "Carlos Alegre Urquiz (GitHub --> https://github.com/CarlosAlegreUr)",
    "details": "To use it make your contract inherit InputControl contract and add the isAllowedInput() modifier in the functions you desire to control their inputs. Add to them an extra parameter, this parameter should be a 32 bytes hash given by the contract owner in some front-end back-end communication.Additionally you can override callAllowInputsFor() if you please mixing this functionality with, for example, other useful ones like Owner or AccessControl contracts from OpenZeppelin.",
    "kind": "dev",
    "methods": {
      "callAllowInputsFor(address,bytes32[],string)": {
        "details": "Override this function in your contract to use allowInputsFor() mixed with other useful contracts and modifiers like Owner and AccessControl contracts of OpenZeppelin. See param specifications in allowInputsFor() docs."
      },
      "getAllowedInputs(string,address)": {
        "returns": {
          "_0": "Allowed inputs from `_address` when calling `_funcSignature`. Index of inputs on the inputs array shows in which time calling `_funcSignature` that input can be used."
        }
      }
    },
    "title": "Input Control.",
    "version": 1
  },
  "userdoc": {
    "kind": "user",
    "methods": {},
    "notice": "InputControl can be used to control which inputs can some addresses send to your smart contracts functions.",
    "version": 1
  },
  "storageLayout": {
    "storage": [
      {
        "astId": 1620,
        "contract": "contracts/InputControl.sol:InputControl",
        "label": "s_funcSignatureToAllowedInputSequence",
        "offset": 0,
        "slot": "0",
        "type": "t_mapping(t_string_memory_ptr,t_mapping(t_address,t_struct(inputSequence)1613_storage))"
      }
    ],
    "types": {
      "t_address": {
        "encoding": "inplace",
        "label": "address",
        "numberOfBytes": "20"
      },
      "t_array(t_bytes32)dyn_storage": {
        "base": "t_bytes32",
        "encoding": "dynamic_array",
        "label": "bytes32[]",
        "numberOfBytes": "32"
      },
      "t_bytes32": {
        "encoding": "inplace",
        "label": "bytes32",
        "numberOfBytes": "32"
      },
      "t_mapping(t_address,t_struct(inputSequence)1613_storage)": {
        "encoding": "mapping",
        "key": "t_address",
        "label": "mapping(address => struct InputControl.inputSequence)",
        "numberOfBytes": "32",
        "value": "t_struct(inputSequence)1613_storage"
      },
      "t_mapping(t_string_memory_ptr,t_mapping(t_address,t_struct(inputSequence)1613_storage))": {
        "encoding": "mapping",
        "key": "t_string_memory_ptr",
        "label": "mapping(string => mapping(address => struct InputControl.inputSequence))",
        "numberOfBytes": "32",
        "value": "t_mapping(t_address,t_struct(inputSequence)1613_storage)"
      },
      "t_string_memory_ptr": {
        "encoding": "bytes",
        "label": "string",
        "numberOfBytes": "32"
      },
      "t_struct(inputSequence)1613_storage": {
        "encoding": "inplace",
        "label": "struct InputControl.inputSequence",
        "members": [
          {
            "astId": 1607,
            "contract": "contracts/InputControl.sol:InputControl",
            "label": "numOfCalls",
            "offset": 0,
            "slot": "0",
            "type": "t_uint256"
          },
          {
            "astId": 1610,
            "contract": "contracts/InputControl.sol:InputControl",
            "label": "inputs",
            "offset": 0,
            "slot": "1",
            "type": "t_array(t_bytes32)dyn_storage"
          },
          {
            "astId": 1612,
            "contract": "contracts/InputControl.sol:InputControl",
            "label": "actualCall",
            "offset": 0,
            "slot": "2",
            "type": "t_uint256"
          }
        ],
        "numberOfBytes": "96"
      },
      "t_uint256": {
        "encoding": "inplace",
        "label": "uint256",
        "numberOfBytes": "32"
      }
    }
  }
}