{
  "address": "0xe7f1725E7734CE288F8367e1Bb143E90bb3F0512",
  "abi": [
    {
      "inputs": [],
      "name": "InputControl__NotAllowedInput",
      "type": "error"
    },
    {
      "anonymous": false,
      "inputs": [
        {
          "indexed": true,
          "internalType": "address",
          "name": "client",
          "type": "address"
        },
        {
          "indexed": true,
          "internalType": "string",
          "name": "funcSig",
          "type": "string"
        },
        {
          "indexed": false,
          "internalType": "bytes32[]",
          "name": "validInputs",
          "type": "bytes32[]"
        }
      ],
      "name": "InputControl__AllowedInputsGranted",
      "type": "event"
    },
    {
      "anonymous": false,
      "inputs": [
        {
          "indexed": true,
          "internalType": "address",
          "name": "previousOwner",
          "type": "address"
        },
        {
          "indexed": true,
          "internalType": "address",
          "name": "newOwner",
          "type": "address"
        }
      ],
      "name": "OwnershipTransferred",
      "type": "event"
    },
    {
      "inputs": [
        {
          "internalType": "address",
          "name": "_client",
          "type": "address"
        },
        {
          "internalType": "bytes32[]",
          "name": "_validInputs",
          "type": "bytes32[]"
        },
        {
          "internalType": "string",
          "name": "_funcSignature",
          "type": "string"
        }
      ],
      "name": "callAllowInputsFor",
      "outputs": [],
      "stateMutability": "nonpayable",
      "type": "function"
    },
    {
      "inputs": [
        {
          "internalType": "string",
          "name": "_funcSignature",
          "type": "string"
        },
        {
          "internalType": "address",
          "name": "_address",
          "type": "address"
        }
      ],
      "name": "getAllowedInputs",
      "outputs": [
        {
          "internalType": "bytes32[]",
          "name": "",
          "type": "bytes32[]"
        }
      ],
      "stateMutability": "view",
      "type": "function"
    },
    {
      "inputs": [],
      "name": "getNumber",
      "outputs": [
        {
          "internalType": "uint256",
          "name": "",
          "type": "uint256"
        }
      ],
      "stateMutability": "view",
      "type": "function"
    },
    {
      "inputs": [
        {
          "internalType": "uint256",
          "name": "_newNumber",
          "type": "uint256"
        },
        {
          "internalType": "address",
          "name": "_anAddress",
          "type": "address"
        }
      ],
      "name": "myFunc",
      "outputs": [],
      "stateMutability": "nonpayable",
      "type": "function"
    },
    {
      "inputs": [],
      "name": "owner",
      "outputs": [
        {
          "internalType": "address",
          "name": "",
          "type": "address"
        }
      ],
      "stateMutability": "view",
      "type": "function"
    },
    {
      "inputs": [],
      "name": "renounceOwnership",
      "outputs": [],
      "stateMutability": "nonpayable",
      "type": "function"
    },
    {
      "inputs": [
        {
          "internalType": "address",
          "name": "newOwner",
          "type": "address"
        }
      ],
      "name": "transferOwnership",
      "outputs": [],
      "stateMutability": "nonpayable",
      "type": "function"
    }
  ],
  "transactionHash": "0xaad1d308526d5721fb4f8b63f799f551a06f05593dc40d6f79077959b6557911",
  "args": [],
  "numDeployments": 1,
  "solcInputHash": "d612edee16dc5d9f86d060ebd79d56c6",
  "bytecode": "0x608060405234801561001057600080fd5b5061002d61002261003260201b60201c565b61003a60201b60201c565b610100565b600033905090565b6000600160009054906101000a900473ffffffffffffffffffffffffffffffffffffffff16905081600160006101000a81548173ffffffffffffffffffffffffffffffffffffffff021916908373ffffffffffffffffffffffffffffffffffffffff1602179055508173ffffffffffffffffffffffffffffffffffffffff168173ffffffffffffffffffffffffffffffffffffffff167f8be0079c531659141344cd1fd0a4f28419497f9722a3daafe3b4186f6b6457e060405160405180910390a35050565b611b378061010f6000396000f3fe608060405234801561001057600080fd5b506004361061007d5760003560e01c80638da5cb5b1161005b5780638da5cb5b146100d8578063b16731c8146100f6578063f2c9ecd814610112578063f2fde38b146101305761007d565b806331178f211461008257806367adc20f146100b2578063715018a6146100ce575b600080fd5b61009c60048036038101906100979190611334565b61014c565b6040516100a99190611458565b60405180910390f35b6100cc60048036038101906100c791906114b0565b610203565b005b6100d66108c6565b005b6100e06108da565b6040516100ed91906114ff565b60405180910390f35b610110600480360381019061010b91906115d0565b610904565b005b61011a610920565b6040516101279190611674565b60405180910390f35b61014a6004803603810190610145919061168f565b61092a565b005b606060008360405161015e919061172d565b908152602001604051809103902060008373ffffffffffffffffffffffffffffffffffffffff1673ffffffffffffffffffffffffffffffffffffffff1681526020019081526020016000206001018054806020026020016040519081016040528092919081815260200182805480156101f657602002820191906000526020600020905b8154815260200190600101908083116101e2575b5050505050905092915050565b6040518060400160405280601881526020017f6d7946756e632875696e743235362c206164647265737329000000000000000081525033838360405160200161024d9291906117ad565b604051602081830303815290604052805190602001206102a16040518060400160405280601f81526020017f2d2d2d2d2d2d2d2d2d2d2d2d2d2d2d2d2d2d2d2d2d2d2d2d2d2d2d2d2d2d2d008152506109ad565b6102df6040518060400160405280601f81526020017f2d2d2d2d2d2d2d2d2d2d2d2d2d2d2d2d2d2d2d2d2d2d2d2d2d2d2d2d2d2d2d008152506109ad565b61031d6040518060400160405280601081526020017f434c49454e54204348454b434544203a000000000000000000000000000000008152506109ad565b61035c6040518060400160405280600281526020017f257300000000000000000000000000000000000000000000000000000000000081525083610a46565b61039a6040518060400160405280601f81526020017f2d2d2d2d2d2d2d2d2d2d2d2d2d2d2d2d2d2d2d2d2d2d2d2d2d2d2d2d2d2d2d008152506109ad565b600080846040516103ab919061172d565b908152602001604051809103902060008473ffffffffffffffffffffffffffffffffffffffff1673ffffffffffffffffffffffffffffffffffffffff168152602001908152602001600020604051806060016040529081600082015481526020016001820180548060200260200160405190810160405280929190818152602001828054801561045a57602002820191906000526020600020905b815481526020019060010190808311610446575b5050505050815260200160028201548152505090506104ad6040518060400160405280601f81526020017f2d2d2d2d2d2d2d2d2d2d2d2d2d2d2d2d2d2d2d2d2d2d2d2d2d2d2d2d2d2d2d008152506109ad565b6104eb6040518060400160405280601481526020017f4e554d204f462043414c4c532056414c5545203a0000000000000000000000008152506109ad565b6105886040518060400160405280600281526020017f2573000000000000000000000000000000000000000000000000000000000000815250600086604051610534919061172d565b908152602001604051809103902060008673ffffffffffffffffffffffffffffffffffffffff1673ffffffffffffffffffffffffffffffffffffffff16815260200190815260200160002060000154610ae2565b6105c66040518060400160405280601f81526020017f2d2d2d2d2d2d2d2d2d2d2d2d2d2d2d2d2d2d2d2d2d2d2d2d2d2d2d2d2d2d2d008152506109ad565b6106046040518060400160405280601f81526020017f2d2d2d2d2d2d2d2d2d2d2d2d2d2d2d2d2d2d2d2d2d2d2d2d2d2d2d2d2d2d2d008152506109ad565b6106426040518060400160405280601081526020017f5345512043414c4c2056414c5545203a000000000000000000000000000000008152506109ad565b6106856040518060400160405280600281526020017f25730000000000000000000000000000000000000000000000000000000000008152508260000151610ae2565b6106c36040518060400160405280601f81526020017f2d2d2d2d2d2d2d2d2d2d2d2d2d2d2d2d2d2d2d2d2d2d2d2d2d2d2d2d2d2d2d008152506109ad565b6000816000015114610844578181602001518260400151815181106106eb576106ea6117d9565b5b60200260200101511461072a576040517fd7eef3b500000000000000000000000000000000000000000000000000000000815260040160405180910390fd5b8060000151600182604001516107409190611837565b036107c857600084604051610755919061172d565b908152602001604051809103902060008473ffffffffffffffffffffffffffffffffffffffff1673ffffffffffffffffffffffffffffffffffffffff1681526020019081526020016000206000808201600090556001820160006107b991906110f1565b6002820160009055505061083f565b60016000856040516107da919061172d565b908152602001604051809103902060008573ffffffffffffffffffffffffffffffffffffffff1673ffffffffffffffffffffffffffffffffffffffff16815260200190815260200160002060020160008282546108379190611837565b925050819055505b610876565b6040517fd7eef3b500000000000000000000000000000000000000000000000000000000815260040160405180910390fd5b8560028190555084600360006101000a81548173ffffffffffffffffffffffffffffffffffffffff021916908373ffffffffffffffffffffffffffffffffffffffff160217905550505050505050565b6108ce610b7e565b6108d86000610bfc565b565b6000600160009054906101000a900473ffffffffffffffffffffffffffffffffffffffff16905090565b61090c610b7e565b6109198585858585610cc2565b5050505050565b6000600254905090565b610932610b7e565b600073ffffffffffffffffffffffffffffffffffffffff168173ffffffffffffffffffffffffffffffffffffffff16036109a1576040517f08c379a0000000000000000000000000000000000000000000000000000000008152600401610998906118ee565b60405180910390fd5b6109aa81610bfc565b50565b610a43816040516024016109c19190611947565b6040516020818303038152906040527f41304fac000000000000000000000000000000000000000000000000000000007bffffffffffffffffffffffffffffffffffffffffffffffffffffffff19166020820180517bffffffffffffffffffffffffffffffffffffffffffffffffffffffff83818316178352505050506110c0565b50565b610ade8282604051602401610a5c929190611969565b6040516020818303038152906040527f319af333000000000000000000000000000000000000000000000000000000007bffffffffffffffffffffffffffffffffffffffffffffffffffffffff19166020820180517bffffffffffffffffffffffffffffffffffffffffffffffffffffffff83818316178352505050506110c0565b5050565b610b7a8282604051602401610af8929190611999565b6040516020818303038152906040527fb60e72cc000000000000000000000000000000000000000000000000000000007bffffffffffffffffffffffffffffffffffffffffffffffffffffffff19166020820180517bffffffffffffffffffffffffffffffffffffffffffffffffffffffff83818316178352505050506110c0565b5050565b610b866110e9565b73ffffffffffffffffffffffffffffffffffffffff16610ba46108da565b73ffffffffffffffffffffffffffffffffffffffff1614610bfa576040517f08c379a0000000000000000000000000000000000000000000000000000000008152600401610bf190611a15565b60405180910390fd5b565b6000600160009054906101000a900473ffffffffffffffffffffffffffffffffffffffff16905081600160006101000a81548173ffffffffffffffffffffffffffffffffffffffff021916908373ffffffffffffffffffffffffffffffffffffffff1602179055508173ffffffffffffffffffffffffffffffffffffffff168173ffffffffffffffffffffffffffffffffffffffff167f8be0079c531659141344cd1fd0a4f28419497f9722a3daafe3b4186f6b6457e060405160405180910390a35050565b8383905060008383604051610cd8929190611a5a565b908152602001604051809103902060008773ffffffffffffffffffffffffffffffffffffffff1673ffffffffffffffffffffffffffffffffffffffff168152602001908152602001600020600001819055506000808383604051610d3d929190611a5a565b908152602001604051809103902060008773ffffffffffffffffffffffffffffffffffffffff1673ffffffffffffffffffffffffffffffffffffffff16815260200190815260200160002060020181905550838360008484604051610da3929190611a5a565b908152602001604051809103902060008873ffffffffffffffffffffffffffffffffffffffff1673ffffffffffffffffffffffffffffffffffffffff1681526020019081526020016000206001019190610dfe929190611112565b50610e3d6040518060400160405280601f81526020017f2d2d2d2d2d2d2d2d2d2d2d2d2d2d2d2d2d2d2d2d2d2d2d2d2d2d2d2d2d2d2d008152506109ad565b610e7b6040518060400160405280601281526020017f534156494e4720544849532056414c55453a00000000000000000000000000008152506109ad565b610f1a6040518060400160405280600281526020017f257300000000000000000000000000000000000000000000000000000000000081525060008484604051610ec6929190611a5a565b908152602001604051809103902060008873ffffffffffffffffffffffffffffffffffffffff1673ffffffffffffffffffffffffffffffffffffffff16815260200190815260200160002060000154610ae2565b610f586040518060400160405280601f81526020017f2d2d2d2d2d2d2d2d2d2d2d2d2d2d2d2d2d2d2d2d2d2d2d2d2d2d2d2d2d2d2d008152506109ad565b610f966040518060400160405280601f81526020017f2d2d2d2d2d2d2d2d2d2d2d2d2d2d2d2d2d2d2d2d2d2d2d2d2d2d2d2d2d2d2d008152506109ad565b610fd46040518060400160405280600f81526020017f434c49454e5420414c4c4f5745443a00000000000000000000000000000000008152506109ad565b6110136040518060400160405280600281526020017f257300000000000000000000000000000000000000000000000000000000000081525086610a46565b6110516040518060400160405280601f81526020017f2d2d2d2d2d2d2d2d2d2d2d2d2d2d2d2d2d2d2d2d2d2d2d2d2d2d2d2d2d2d2d008152506109ad565b8181604051611061929190611a5a565b60405180910390208573ffffffffffffffffffffffffffffffffffffffff167f58fa4241059db3501974e44fab24d95eb1201626497a194d5725a29ca5a2c8d886866040516110b1929190611add565b60405180910390a35050505050565b60008151905060006a636f6e736f6c652e6c6f679050602083016000808483855afa5050505050565b600033905090565b508054600082559060005260206000209081019061110f919061115f565b50565b82805482825590600052602060002090810192821561114e579160200282015b8281111561114d578235825591602001919060010190611132565b5b50905061115b919061115f565b5090565b5b80821115611178576000816000905550600101611160565b5090565b6000604051905090565b600080fd5b600080fd5b600080fd5b600080fd5b6000601f19601f8301169050919050565b7f4e487b7100000000000000000000000000000000000000000000000000000000600052604160045260246000fd5b6111e38261119a565b810181811067ffffffffffffffff82111715611202576112016111ab565b5b80604052505050565b600061121561117c565b905061122182826111da565b919050565b600067ffffffffffffffff821115611241576112406111ab565b5b61124a8261119a565b9050602081019050919050565b82818337600083830152505050565b600061127961127484611226565b61120b565b90508281526020810184848401111561129557611294611195565b5b6112a0848285611257565b509392505050565b600082601f8301126112bd576112bc611190565b5b81356112cd848260208601611266565b91505092915050565b600073ffffffffffffffffffffffffffffffffffffffff82169050919050565b6000611301826112d6565b9050919050565b611311816112f6565b811461131c57600080fd5b50565b60008135905061132e81611308565b92915050565b6000806040838503121561134b5761134a611186565b5b600083013567ffffffffffffffff8111156113695761136861118b565b5b611375858286016112a8565b92505060206113868582860161131f565b9150509250929050565b600081519050919050565b600082825260208201905092915050565b6000819050602082019050919050565b6000819050919050565b6113cf816113bc565b82525050565b60006113e183836113c6565b60208301905092915050565b6000602082019050919050565b600061140582611390565b61140f818561139b565b935061141a836113ac565b8060005b8381101561144b57815161143288826113d5565b975061143d836113ed565b92505060018101905061141e565b5085935050505092915050565b6000602082019050818103600083015261147281846113fa565b905092915050565b6000819050919050565b61148d8161147a565b811461149857600080fd5b50565b6000813590506114aa81611484565b92915050565b600080604083850312156114c7576114c6611186565b5b60006114d58582860161149b565b92505060206114e68582860161131f565b9150509250929050565b6114f9816112f6565b82525050565b600060208201905061151460008301846114f0565b92915050565b600080fd5b600080fd5b60008083601f84011261153a57611539611190565b5b8235905067ffffffffffffffff8111156115575761155661151a565b5b6020830191508360208202830111156115735761157261151f565b5b9250929050565b60008083601f8401126115905761158f611190565b5b8235905067ffffffffffffffff8111156115ad576115ac61151a565b5b6020830191508360018202830111156115c9576115c861151f565b5b9250929050565b6000806000806000606086880312156115ec576115eb611186565b5b60006115fa8882890161131f565b955050602086013567ffffffffffffffff81111561161b5761161a61118b565b5b61162788828901611524565b9450945050604086013567ffffffffffffffff81111561164a5761164961118b565b5b6116568882890161157a565b92509250509295509295909350565b61166e8161147a565b82525050565b60006020820190506116896000830184611665565b92915050565b6000602082840312156116a5576116a4611186565b5b60006116b38482850161131f565b91505092915050565b600081519050919050565b600081905092915050565b60005b838110156116f05780820151818401526020810190506116d5565b60008484015250505050565b6000611707826116bc565b61171181856116c7565b93506117218185602086016116d2565b80840191505092915050565b600061173982846116fc565b915081905092915050565b6000819050919050565b61175f61175a8261147a565b611744565b82525050565b60008160601b9050919050565b600061177d82611765565b9050919050565b600061178f82611772565b9050919050565b6117a76117a2826112f6565b611784565b82525050565b60006117b9828561174e565b6020820191506117c98284611796565b6014820191508190509392505050565b7f4e487b7100000000000000000000000000000000000000000000000000000000600052603260045260246000fd5b7f4e487b7100000000000000000000000000000000000000000000000000000000600052601160045260246000fd5b60006118428261147a565b915061184d8361147a565b925082820190508082111561186557611864611808565b5b92915050565b600082825260208201905092915050565b7f4f776e61626c653a206e6577206f776e657220697320746865207a65726f206160008201527f6464726573730000000000000000000000000000000000000000000000000000602082015250565b60006118d860268361186b565b91506118e38261187c565b604082019050919050565b60006020820190508181036000830152611907816118cb565b9050919050565b6000611919826116bc565b611923818561186b565b93506119338185602086016116d2565b61193c8161119a565b840191505092915050565b60006020820190508181036000830152611961818461190e565b905092915050565b60006040820190508181036000830152611983818561190e565b905061199260208301846114f0565b9392505050565b600060408201905081810360008301526119b3818561190e565b90506119c26020830184611665565b9392505050565b7f4f776e61626c653a2063616c6c6572206973206e6f7420746865206f776e6572600082015250565b60006119ff60208361186b565b9150611a0a826119c9565b602082019050919050565b60006020820190508181036000830152611a2e816119f2565b9050919050565b6000611a4183856116c7565b9350611a4e838584611257565b82840190509392505050565b6000611a67828486611a35565b91508190509392505050565b600080fd5b82818337505050565b6000611a8d838561139b565b93507f07ffffffffffffffffffffffffffffffffffffffffffffffffffffffffffffff831115611ac057611abf611a73565b5b602083029250611ad1838584611a78565b82840190509392505050565b60006020820190508181036000830152611af8818486611a81565b9050939250505056fea2646970667358221220e686c0d1290b9c2c0ab44fe71d402fc59538e66ee5e3311f83d5a60b176721bf64736f6c63430008110033",
  "devdoc": {
    "author": "Carlos Alegre Urquiz (GitHub --> https://github.com/CarlosAlegreUr)",
    "details": "To use InputControl make your contract inherit InputControl and add the isAllowedInput() modifier in the functions you desire to control their inputs. The '_input' parameter of the modifier must be = keccak256(abi.encodePacked(inputs)).Additionally you can override callAllowInputsFor() if you please mixing this functionality with, for example, other useful ones like Owner or AccessControl contracts from OpenZeppelin.",
    "kind": "dev",
    "methods": {
      "callAllowInputsFor(address,bytes32[],string)": {
        "details": "Override this function in your contract to use allowInputsFor() mixed with other useful contracts and modifiers like Owner and AccessControl contracts of OpenZeppelin. See param specifications in allowInputsFor() docs."
      },
      "getAllowedInputs(string,address)": {
        "returns": {
          "_0": "Allowed inputs from `_address` when calling `_funcSignature`. Index of inputs on the inputs array shows in which time calling `_funcSignature` that input can be used."
        }
      },
      "owner()": {
        "details": "Returns the address of the current owner."
      },
      "renounceOwnership()": {
        "details": "Leaves the contract without owner. It will not be possible to call `onlyOwner` functions anymore. Can only be called by the current owner. NOTE: Renouncing ownership will leave the contract without an owner, thereby removing any functionality that is only available to the owner."
      },
      "transferOwnership(address)": {
        "details": "Transfers ownership of the contract to a new account (`newOwner`). Can only be called by the current owner."
      }
    },
    "title": "Example of contract using InputControl.",
    "version": 1
  },
  "userdoc": {
    "kind": "user",
    "methods": {},
    "version": 1
  },
  "storageLayout": {
    "storage": [
      {
        "astId": 1620,
        "contract": "contracts/UseCaseContract.sol:UseCaseContract",
        "label": "s_funcSignatureToAllowedInputSequence",
        "offset": 0,
        "slot": "0",
        "type": "t_mapping(t_string_memory_ptr,t_mapping(t_address,t_struct(inputSequence)1613_storage))"
      },
      {
        "astId": 396,
        "contract": "contracts/UseCaseContract.sol:UseCaseContract",
        "label": "_owner",
        "offset": 0,
        "slot": "1",
        "type": "t_address"
      },
      {
        "astId": 1939,
        "contract": "contracts/UseCaseContract.sol:UseCaseContract",
        "label": "s_incrediblyAmazingNumber",
        "offset": 0,
        "slot": "2",
        "type": "t_uint256"
      },
      {
        "astId": 1941,
        "contract": "contracts/UseCaseContract.sol:UseCaseContract",
        "label": "s_someAddress",
        "offset": 0,
        "slot": "3",
        "type": "t_address"
      }
    ],
    "types": {
      "t_address": {
        "encoding": "inplace",
        "label": "address",
        "numberOfBytes": "20"
      },
      "t_array(t_bytes32)dyn_storage": {
        "base": "t_bytes32",
        "encoding": "dynamic_array",
        "label": "bytes32[]",
        "numberOfBytes": "32"
      },
      "t_bytes32": {
        "encoding": "inplace",
        "label": "bytes32",
        "numberOfBytes": "32"
      },
      "t_mapping(t_address,t_struct(inputSequence)1613_storage)": {
        "encoding": "mapping",
        "key": "t_address",
        "label": "mapping(address => struct InputControl.inputSequence)",
        "numberOfBytes": "32",
        "value": "t_struct(inputSequence)1613_storage"
      },
      "t_mapping(t_string_memory_ptr,t_mapping(t_address,t_struct(inputSequence)1613_storage))": {
        "encoding": "mapping",
        "key": "t_string_memory_ptr",
        "label": "mapping(string => mapping(address => struct InputControl.inputSequence))",
        "numberOfBytes": "32",
        "value": "t_mapping(t_address,t_struct(inputSequence)1613_storage)"
      },
      "t_string_memory_ptr": {
        "encoding": "bytes",
        "label": "string",
        "numberOfBytes": "32"
      },
      "t_struct(inputSequence)1613_storage": {
        "encoding": "inplace",
        "label": "struct InputControl.inputSequence",
        "members": [
          {
            "astId": 1607,
            "contract": "contracts/UseCaseContract.sol:UseCaseContract",
            "label": "numOfCalls",
            "offset": 0,
            "slot": "0",
            "type": "t_uint256"
          },
          {
            "astId": 1610,
            "contract": "contracts/UseCaseContract.sol:UseCaseContract",
            "label": "inputs",
            "offset": 0,
            "slot": "1",
            "type": "t_array(t_bytes32)dyn_storage"
          },
          {
            "astId": 1612,
            "contract": "contracts/UseCaseContract.sol:UseCaseContract",
            "label": "actualCall",
            "offset": 0,
            "slot": "2",
            "type": "t_uint256"
          }
        ],
        "numberOfBytes": "96"
      },
      "t_uint256": {
        "encoding": "inplace",
        "label": "uint256",
        "numberOfBytes": "32"
      }
    }
  }
}